{
  "_format": "hh-sol-artifact-1",
  "contractName": "Project",
  "sourceName": "contracts/Project.sol",
  "abi": [
    {
      "inputs": [
        {
          "internalType": "address",
          "name": "_creator",
          "type": "address"
        },
        {
          "internalType": "uint256",
          "name": "_projectId",
          "type": "uint256"
        },
        {
          "internalType": "uint256",
          "name": "_goal",
          "type": "uint256"
        },
        {
          "internalType": "string",
          "name": "_badgeName",
          "type": "string"
        },
        {
          "internalType": "string",
          "name": "_badgeSymbol",
          "type": "string"
        }
      ],
      "stateMutability": "nonpayable",
      "type": "constructor"
    },
    {
      "anonymous": false,
      "inputs": [
        {
          "indexed": true,
          "internalType": "address",
          "name": "owner",
          "type": "address"
        },
        {
          "indexed": true,
          "internalType": "address",
          "name": "approved",
          "type": "address"
        },
        {
          "indexed": true,
          "internalType": "uint256",
          "name": "tokenId",
          "type": "uint256"
        }
      ],
      "name": "Approval",
      "type": "event"
    },
    {
      "anonymous": false,
      "inputs": [
        {
          "indexed": true,
          "internalType": "address",
          "name": "owner",
          "type": "address"
        },
        {
          "indexed": true,
          "internalType": "address",
          "name": "operator",
          "type": "address"
        },
        {
          "indexed": false,
          "internalType": "bool",
          "name": "approved",
          "type": "bool"
        }
      ],
      "name": "ApprovalForAll",
      "type": "event"
    },
    {
      "anonymous": false,
      "inputs": [
        {
          "indexed": true,
          "internalType": "address",
          "name": "contributor",
          "type": "address"
        },
        {
          "indexed": true,
          "internalType": "uint256",
          "name": "amount",
          "type": "uint256"
        }
      ],
      "name": "Contribute",
      "type": "event"
    },
    {
      "anonymous": false,
      "inputs": [
        {
          "indexed": true,
          "internalType": "uint256",
          "name": "id",
          "type": "uint256"
        },
        {
          "indexed": true,
          "internalType": "address",
          "name": "creator",
          "type": "address"
        },
        {
          "indexed": false,
          "internalType": "uint256",
          "name": "amount",
          "type": "uint256"
        }
      ],
      "name": "CreatorWithdraw",
      "type": "event"
    },
    {
      "anonymous": false,
      "inputs": [
        {
          "indexed": true,
          "internalType": "uint256",
          "name": "id",
          "type": "uint256"
        },
        {
          "indexed": true,
          "internalType": "bool",
          "name": "isCancelled",
          "type": "bool"
        }
      ],
      "name": "ProjectCancel",
      "type": "event"
    },
    {
      "anonymous": false,
      "inputs": [
        {
          "indexed": true,
          "internalType": "address",
          "name": "from",
          "type": "address"
        },
        {
          "indexed": true,
          "internalType": "address",
          "name": "to",
          "type": "address"
        },
        {
          "indexed": true,
          "internalType": "uint256",
          "name": "tokenId",
          "type": "uint256"
        }
      ],
      "name": "Transfer",
      "type": "event"
    },
    {
      "anonymous": false,
      "inputs": [
        {
          "indexed": true,
          "internalType": "uint256",
          "name": "id",
          "type": "uint256"
        },
        {
          "indexed": true,
          "internalType": "address",
          "name": "contributor",
          "type": "address"
        },
        {
          "indexed": true,
          "internalType": "uint256",
          "name": "amount",
          "type": "uint256"
        }
      ],
      "name": "UserWithdraw",
      "type": "event"
    },
    {
      "inputs": [
        {
          "internalType": "address",
          "name": "to",
          "type": "address"
        },
        {
          "internalType": "uint256",
          "name": "tokenId",
          "type": "uint256"
        }
      ],
      "name": "approve",
      "outputs": [],
      "stateMutability": "nonpayable",
      "type": "function"
    },
    {
      "inputs": [],
      "name": "badgeIds",
      "outputs": [
        {
          "internalType": "uint256",
          "name": "",
          "type": "uint256"
        }
      ],
      "stateMutability": "view",
      "type": "function"
    },
    {
      "inputs": [
        {
          "internalType": "address",
          "name": "owner",
          "type": "address"
        }
      ],
      "name": "balanceOf",
      "outputs": [
        {
          "internalType": "uint256",
          "name": "",
          "type": "uint256"
        }
      ],
      "stateMutability": "view",
      "type": "function"
    },
    {
      "inputs": [],
      "name": "cancel",
      "outputs": [],
      "stateMutability": "nonpayable",
      "type": "function"
    },
    {
      "inputs": [],
      "name": "closeDate",
      "outputs": [
        {
          "internalType": "uint256",
          "name": "",
          "type": "uint256"
        }
      ],
      "stateMutability": "view",
      "type": "function"
    },
    {
      "inputs": [],
      "name": "contribute",
      "outputs": [],
      "stateMutability": "payable",
      "type": "function"
    },
    {
      "inputs": [],
      "name": "contributed",
      "outputs": [
        {
          "internalType": "uint256",
          "name": "",
          "type": "uint256"
        }
      ],
      "stateMutability": "view",
      "type": "function"
    },
    {
      "inputs": [],
      "name": "contributionsLeft",
      "outputs": [
        {
          "internalType": "uint256",
          "name": "",
          "type": "uint256"
        }
      ],
      "stateMutability": "view",
      "type": "function"
    },
    {
      "inputs": [],
      "name": "contributorWithdraw",
      "outputs": [],
      "stateMutability": "nonpayable",
      "type": "function"
    },
    {
      "inputs": [
        {
          "internalType": "address",
          "name": "",
          "type": "address"
        }
      ],
      "name": "contributors",
      "outputs": [
        {
          "internalType": "uint256",
          "name": "",
          "type": "uint256"
        }
      ],
      "stateMutability": "view",
      "type": "function"
    },
    {
      "inputs": [],
      "name": "creator",
      "outputs": [
        {
          "internalType": "address",
          "name": "",
          "type": "address"
        }
      ],
      "stateMutability": "view",
      "type": "function"
    },
    {
      "inputs": [
        {
          "internalType": "uint256",
          "name": "_amount",
          "type": "uint256"
        }
      ],
      "name": "creatorWithdraw",
      "outputs": [],
      "stateMutability": "nonpayable",
      "type": "function"
    },
    {
      "inputs": [],
      "name": "daysOpen",
      "outputs": [
        {
          "internalType": "uint256",
          "name": "",
          "type": "uint256"
        }
      ],
      "stateMutability": "view",
      "type": "function"
    },
    {
      "inputs": [
        {
          "internalType": "uint256",
          "name": "tokenId",
          "type": "uint256"
        }
      ],
      "name": "getApproved",
      "outputs": [
        {
          "internalType": "address",
          "name": "",
          "type": "address"
        }
      ],
      "stateMutability": "view",
      "type": "function"
    },
    {
      "inputs": [],
      "name": "goal",
      "outputs": [
        {
          "internalType": "uint256",
          "name": "",
          "type": "uint256"
        }
      ],
      "stateMutability": "view",
      "type": "function"
    },
    {
      "inputs": [
        {
          "internalType": "address",
          "name": "owner",
          "type": "address"
        },
        {
          "internalType": "address",
          "name": "operator",
          "type": "address"
        }
      ],
      "name": "isApprovedForAll",
      "outputs": [
        {
          "internalType": "bool",
          "name": "",
          "type": "bool"
        }
      ],
      "stateMutability": "view",
      "type": "function"
    },
    {
      "inputs": [],
      "name": "isCancelled",
      "outputs": [
        {
          "internalType": "bool",
          "name": "",
          "type": "bool"
        }
      ],
      "stateMutability": "view",
      "type": "function"
    },
    {
      "inputs": [],
      "name": "minContribution",
      "outputs": [
        {
          "internalType": "uint256",
          "name": "",
          "type": "uint256"
        }
      ],
      "stateMutability": "view",
      "type": "function"
    },
    {
      "inputs": [],
      "name": "name",
      "outputs": [
        {
          "internalType": "string",
          "name": "",
          "type": "string"
        }
      ],
      "stateMutability": "view",
      "type": "function"
    },
    {
      "inputs": [
        {
          "internalType": "address",
          "name": "",
          "type": "address"
        }
      ],
      "name": "numBadges",
      "outputs": [
        {
          "internalType": "uint256",
          "name": "",
          "type": "uint256"
        }
      ],
      "stateMutability": "view",
      "type": "function"
    },
    {
      "inputs": [
        {
          "internalType": "uint256",
          "name": "tokenId",
          "type": "uint256"
        }
      ],
      "name": "ownerOf",
      "outputs": [
        {
          "internalType": "address",
          "name": "",
          "type": "address"
        }
      ],
      "stateMutability": "view",
      "type": "function"
    },
    {
      "inputs": [],
      "name": "projectId",
      "outputs": [
        {
          "internalType": "uint256",
          "name": "",
          "type": "uint256"
        }
      ],
      "stateMutability": "view",
      "type": "function"
    },
    {
      "inputs": [
        {
          "internalType": "address",
          "name": "from",
          "type": "address"
        },
        {
          "internalType": "address",
          "name": "to",
          "type": "address"
        },
        {
          "internalType": "uint256",
          "name": "tokenId",
          "type": "uint256"
        }
      ],
      "name": "safeTransferFrom",
      "outputs": [],
      "stateMutability": "nonpayable",
      "type": "function"
    },
    {
      "inputs": [
        {
          "internalType": "address",
          "name": "from",
          "type": "address"
        },
        {
          "internalType": "address",
          "name": "to",
          "type": "address"
        },
        {
          "internalType": "uint256",
          "name": "tokenId",
          "type": "uint256"
        },
        {
          "internalType": "bytes",
          "name": "data",
          "type": "bytes"
        }
      ],
      "name": "safeTransferFrom",
      "outputs": [],
      "stateMutability": "nonpayable",
      "type": "function"
    },
    {
      "inputs": [
        {
          "internalType": "address",
          "name": "operator",
          "type": "address"
        },
        {
          "internalType": "bool",
          "name": "approved",
          "type": "bool"
        }
      ],
      "name": "setApprovalForAll",
      "outputs": [],
      "stateMutability": "nonpayable",
      "type": "function"
    },
    {
      "inputs": [
        {
          "internalType": "bytes4",
          "name": "interfaceId",
          "type": "bytes4"
        }
      ],
      "name": "supportsInterface",
      "outputs": [
        {
          "internalType": "bool",
          "name": "",
          "type": "bool"
        }
      ],
      "stateMutability": "view",
      "type": "function"
    },
    {
      "inputs": [],
      "name": "symbol",
      "outputs": [
        {
          "internalType": "string",
          "name": "",
          "type": "string"
        }
      ],
      "stateMutability": "view",
      "type": "function"
    },
    {
      "inputs": [
        {
          "internalType": "uint256",
          "name": "tokenId",
          "type": "uint256"
        }
      ],
      "name": "tokenURI",
      "outputs": [
        {
          "internalType": "string",
          "name": "",
          "type": "string"
        }
      ],
      "stateMutability": "view",
      "type": "function"
    },
    {
      "inputs": [
        {
          "internalType": "address",
          "name": "from",
          "type": "address"
        },
        {
          "internalType": "address",
          "name": "to",
          "type": "address"
        },
        {
          "internalType": "uint256",
          "name": "tokenId",
          "type": "uint256"
        }
      ],
      "name": "transferFrom",
      "outputs": [],
      "stateMutability": "nonpayable",
      "type": "function"
    }
  ],
  "bytecode": "0x6101006040523480156200001257600080fd5b5060405162003e9c38038062003e9c83398181016040528101906200003891906200027d565b81818160009080519060200190620000529291906200012d565b5080600190805190602001906200006b9291906200012d565b5050506001600681905550662386f26fc10000831015620000c3576040517f08c379a0000000000000000000000000000000000000000000000000000000008152600401620000ba9062000358565b60405180910390fd5b8473ffffffffffffffffffffffffffffffffffffffff1660808173ffffffffffffffffffffffffffffffffffffffff1660601b815250508360a081815250508260e0818152505062278d00426200011b9190620003ea565b60c08181525050505050505062000622565b8280546200013b90620004bb565b90600052602060002090601f0160209004810192826200015f5760008555620001ab565b82601f106200017a57805160ff1916838001178555620001ab565b82800160010185558215620001ab579182015b82811115620001aa5782518255916020019190600101906200018d565b5b509050620001ba9190620001be565b5090565b5b80821115620001d9576000816000905550600101620001bf565b5090565b6000620001f4620001ee84620003a3565b6200037a565b9050828152602081018484840111156200020d57600080fd5b6200021a84828562000485565b509392505050565b6000815190506200023381620005ee565b92915050565b600082601f8301126200024b57600080fd5b81516200025d848260208601620001dd565b91505092915050565b600081519050620002778162000608565b92915050565b600080600080600060a086880312156200029657600080fd5b6000620002a68882890162000222565b9550506020620002b98882890162000266565b9450506040620002cc8882890162000266565b935050606086015167ffffffffffffffff811115620002ea57600080fd5b620002f88882890162000239565b925050608086015167ffffffffffffffff8111156200031657600080fd5b620003248882890162000239565b9150509295509295909350565b600062000340600c83620003d9565b91506200034d82620005c5565b602082019050919050565b60006020820190508181036000830152620003738162000331565b9050919050565b60006200038662000399565b9050620003948282620004f1565b919050565b6000604051905090565b600067ffffffffffffffff821115620003c157620003c062000585565b5b620003cc82620005b4565b9050602081019050919050565b600082825260208201905092915050565b6000620003f7826200047b565b915062000404836200047b565b9250827fffffffffffffffffffffffffffffffffffffffffffffffffffffffffffffffff038211156200043c576200043b62000527565b5b828201905092915050565b600062000454826200045b565b9050919050565b600073ffffffffffffffffffffffffffffffffffffffff82169050919050565b6000819050919050565b60005b83811015620004a557808201518184015260208101905062000488565b83811115620004b5576000848401525b50505050565b60006002820490506001821680620004d457607f821691505b60208210811415620004eb57620004ea62000556565b5b50919050565b620004fc82620005b4565b810181811067ffffffffffffffff821117156200051e576200051d62000585565b5b80604052505050565b7f4e487b7100000000000000000000000000000000000000000000000000000000600052601160045260246000fd5b7f4e487b7100000000000000000000000000000000000000000000000000000000600052602260045260246000fd5b7f4e487b7100000000000000000000000000000000000000000000000000000000600052604160045260246000fd5b6000601f19601f8301169050919050565b7f676f616c20746f6f206c6f770000000000000000000000000000000000000000600082015250565b620005f98162000447565b81146200060557600080fd5b50565b62000613816200047b565b81146200061f57600080fd5b50565b60805160601c60a05160c05160e0516137e2620006ba60003960008181610a9701528181610ccc01528181610f1e0152818161132501526117a4015260008181610a6d01528181610d1001528181610ef4015281816112c20152611741015260008181610c5701528181610ca80152818161106301526118350152600081816107c50152818161102c01526116b301526137e26000f3fe6080604052600436106101c25760003560e01c80636352211e116100f7578063aaffadf311610095578063c87b56dd11610064578063c87b56dd14610646578063d7bb99ba14610683578063e985e9c51461068d578063ea8a1af0146106ca576101c2565b8063aaffadf31461058a578063b22a2f93146105b5578063b88d4fde146105f2578063c815faa81461061b576101c2565b806395d89b41116100d157806395d89b41146104e057806395ee12211461050b578063a22cb46514610536578063a49da4b31461055f576101c2565b80636352211e1461043d57806370a082311461047a57806371eb89f3146104b7576101c2565b806323b872dd11610164578063401938831161013e578063401938831461039357806342842e0e146103be57806348d79b6d146103e75780635446954014610412576101c2565b806323b872dd1461032857806336e5ddc9146103515780633fafa12714610368576101c2565b8063081812fc116101a0578063081812fc1461025a578063095ea7b314610297578063112f1907146102c05780631f6d4942146102eb576101c2565b806301ffc9a7146101c757806302d05d3f1461020457806306fdde031461022f575b600080fd5b3480156101d357600080fd5b506101ee60048036038101906101e991906127ae565b6106e1565b6040516101fb9190612c78565b60405180910390f35b34801561021057600080fd5b506102196107c3565b6040516102269190612c11565b60405180910390f35b34801561023b57600080fd5b506102446107e7565b6040516102519190612c93565b60405180910390f35b34801561026657600080fd5b50610281600480360381019061027c9190612800565b610879565b60405161028e9190612c11565b60405180910390f35b3480156102a357600080fd5b506102be60048036038101906102b99190612772565b6108bf565b005b3480156102cc57600080fd5b506102d56109d7565b6040516102e29190612f35565b60405180910390f35b3480156102f757600080fd5b50610312600480360381019061030d9190612607565b6109dd565b60405161031f9190612f35565b60405180910390f35b34801561033457600080fd5b5061034f600480360381019061034a919061266c565b6109f5565b005b34801561035d57600080fd5b50610366610a55565b005b34801561037457600080fd5b5061037d610ca6565b60405161038a9190612f35565b60405180910390f35b34801561039f57600080fd5b506103a8610cca565b6040516103b59190612f35565b60405180910390f35b3480156103ca57600080fd5b506103e560048036038101906103e0919061266c565b610cee565b005b3480156103f357600080fd5b506103fc610d0e565b6040516104099190612f35565b60405180910390f35b34801561041e57600080fd5b50610427610d32565b6040516104349190612f35565b60405180910390f35b34801561044957600080fd5b50610464600480360381019061045f9190612800565b610d38565b6040516104719190612c11565b60405180910390f35b34801561048657600080fd5b506104a1600480360381019061049c9190612607565b610dea565b6040516104ae9190612f35565b60405180910390f35b3480156104c357600080fd5b506104de60048036038101906104d99190612800565b610ea2565b005b3480156104ec57600080fd5b506104f56110bd565b6040516105029190612c93565b60405180910390f35b34801561051757600080fd5b5061052061114f565b60405161052d9190612c78565b60405180910390f35b34801561054257600080fd5b5061055d60048036038101906105589190612736565b611162565b005b34801561056b57600080fd5b50610574611178565b6040516105819190612f35565b60405180910390f35b34801561059657600080fd5b5061059f61117f565b6040516105ac9190612f35565b60405180910390f35b3480156105c157600080fd5b506105dc60048036038101906105d79190612607565b61118a565b6040516105e99190612f35565b60405180910390f35b3480156105fe57600080fd5b50610619600480360381019061061491906126bb565b6111a2565b005b34801561062757600080fd5b50610630611204565b60405161063d9190612f35565b60405180910390f35b34801561065257600080fd5b5061066d60048036038101906106689190612800565b61120a565b60405161067a9190612c93565b60405180910390f35b61068b611272565b005b34801561069957600080fd5b506106b460048036038101906106af9190612630565b61161d565b6040516106c19190612c78565b60405180910390f35b3480156106d657600080fd5b506106df6116b1565b005b60007f80ac58cd000000000000000000000000000000000000000000000000000000007bffffffffffffffffffffffffffffffffffffffffffffffffffffffff1916827bffffffffffffffffffffffffffffffffffffffffffffffffffffffff191614806107ac57507f5b5e139f000000000000000000000000000000000000000000000000000000007bffffffffffffffffffffffffffffffffffffffffffffffffffffffff1916827bffffffffffffffffffffffffffffffffffffffffffffffffffffffff1916145b806107bc57506107bb82611882565b5b9050919050565b7f000000000000000000000000000000000000000000000000000000000000000081565b6060600080546107f690613165565b80601f016020809104026020016040519081016040528092919081815260200182805461082290613165565b801561086f5780601f106108445761010080835404028352916020019161086f565b820191906000526020600020905b81548152906001019060200180831161085257829003601f168201915b5050505050905090565b6000610884826118ec565b6004600083815260200190815260200160002060009054906101000a900473ffffffffffffffffffffffffffffffffffffffff169050919050565b60006108ca82610d38565b90508073ffffffffffffffffffffffffffffffffffffffff168373ffffffffffffffffffffffffffffffffffffffff16141561093b576040517f08c379a000000000000000000000000000000000000000000000000000000000815260040161093290612e55565b60405180910390fd5b8073ffffffffffffffffffffffffffffffffffffffff1661095a611937565b73ffffffffffffffffffffffffffffffffffffffff161480610989575061098881610983611937565b61161d565b5b6109c8576040517f08c379a00000000000000000000000000000000000000000000000000000000081526004016109bf90612db5565b60405180910390fd5b6109d2838361193f565b505050565b60085481565b600b6020528060005260406000206000915090505481565b610a06610a00611937565b826119f8565b610a45576040517f08c379a0000000000000000000000000000000000000000000000000000000008152600401610a3c90612ed5565b60405180910390fd5b610a50838383611a8d565b505050565b600760009054906101000a900460ff1680610abc57507f000000000000000000000000000000000000000000000000000000000000000042118015610abb57507f0000000000000000000000000000000000000000000000000000000000000000600854105b5b610afb576040517f08c379a0000000000000000000000000000000000000000000000000000000008152600401610af290612e95565b60405180910390fd5b6000600b60003373ffffffffffffffffffffffffffffffffffffffff1673ffffffffffffffffffffffffffffffffffffffff16815260200190815260200160002054905060008111610b82576040517f08c379a0000000000000000000000000000000000000000000000000000000008152600401610b7990612e15565b60405180910390fd5b6000600b60003373ffffffffffffffffffffffffffffffffffffffff1673ffffffffffffffffffffffffffffffffffffffff1681526020019081526020016000208190555060003373ffffffffffffffffffffffffffffffffffffffff1682604051610bed90612bfc565b60006040518083038185875af1925050503d8060008114610c2a576040519150601f19603f3d011682016040523d82523d6000602084013e610c2f565b606091505b5050905080610c3d57600080fd5b813373ffffffffffffffffffffffffffffffffffffffff167f00000000000000000000000000000000000000000000000000000000000000007f4c66b920a639025f8ebc944240d2c475af3965e15e407739a5330ec309f4ed4d60405160405180910390a45050565b7f000000000000000000000000000000000000000000000000000000000000000081565b7f000000000000000000000000000000000000000000000000000000000000000081565b610d09838383604051806020016040528060008152506111a2565b505050565b7f000000000000000000000000000000000000000000000000000000000000000081565b60095481565b6000806002600084815260200190815260200160002060009054906101000a900473ffffffffffffffffffffffffffffffffffffffff169050600073ffffffffffffffffffffffffffffffffffffffff168173ffffffffffffffffffffffffffffffffffffffff161415610de1576040517f08c379a0000000000000000000000000000000000000000000000000000000008152600401610dd890612e35565b60405180910390fd5b80915050919050565b60008073ffffffffffffffffffffffffffffffffffffffff168273ffffffffffffffffffffffffffffffffffffffff161415610e5b576040517f08c379a0000000000000000000000000000000000000000000000000000000008152600401610e5290612d95565b60405180910390fd5b600360008373ffffffffffffffffffffffffffffffffffffffff1673ffffffffffffffffffffffffffffffffffffffff168152602001908152602001600020549050919050565b600760009054906101000a900460ff1615610ef2576040517f08c379a0000000000000000000000000000000000000000000000000000000008152600401610ee990612df5565b60405180910390fd5b7f000000000000000000000000000000000000000000000000000000000000000042118015610f4357507f000000000000000000000000000000000000000000000000000000000000000060085410155b610f82576040517f08c379a0000000000000000000000000000000000000000000000000000000008152600401610f7990612eb5565b60405180910390fd5b600081118015610f925750478111155b610f9b57600080fd5b8060096000828254610fad919061307b565b9250508190555060003373ffffffffffffffffffffffffffffffffffffffff1682604051610fda90612bfc565b60006040518083038185875af1925050503d8060008114611017576040519150601f19603f3d011682016040523d82523d6000602084013e61101c565b606091505b505090508061102a57600080fd5b7f000000000000000000000000000000000000000000000000000000000000000073ffffffffffffffffffffffffffffffffffffffff167f00000000000000000000000000000000000000000000000000000000000000007f2f7d13f4b9ca353f0f3c6b0c6b2c724784ad130c765bc4a15c1cf1d4374b36ff846040516110b19190612f35565b60405180910390a35050565b6060600180546110cc90613165565b80601f01602080910402602001604051908101604052809291908181526020018280546110f890613165565b80156111455780601f1061111a57610100808354040283529160200191611145565b820191906000526020600020905b81548152906001019060200180831161112857829003601f168201915b5050505050905090565b600760009054906101000a900460ff1681565b61117461116d611937565b8383611cf4565b5050565b62278d0081565b662386f26fc1000081565b600c6020528060005260406000206000915090505481565b6111b36111ad611937565b836119f8565b6111f2576040517f08c379a00000000000000000000000000000000000000000000000000000000081526004016111e990612ed5565b60405180910390fd5b6111fe84848484611e61565b50505050565b600a5481565b6060611215826118ec565b600061121f611ebd565b9050600081511161123f576040518060200160405280600081525061126a565b8061124984611ed4565b60405160200161125a929190612bd8565b6040516020818303038152906040525b915050919050565b600260065414156112b8576040517f08c379a00000000000000000000000000000000000000000000000000000000081526004016112af90612ef5565b60405180910390fd5b60026006819055507f0000000000000000000000000000000000000000000000000000000000000000421115611323576040517f08c379a000000000000000000000000000000000000000000000000000000000815260040161131a90612f15565b60405180910390fd5b7f000000000000000000000000000000000000000000000000000000000000000060085410611387576040517f08c379a000000000000000000000000000000000000000000000000000000000815260040161137e90612d75565b60405180910390fd5b600760009054906101000a900460ff16156113d7576040517f08c379a00000000000000000000000000000000000000000000000000000000081526004016113ce90612df5565b60405180910390fd5b662386f26fc10000341015611421576040517f08c379a000000000000000000000000000000000000000000000000000000000815260040161141890612e75565b60405180910390fd5b6000600c60003373ffffffffffffffffffffffffffffffffffffffff1673ffffffffffffffffffffffffffffffffffffffff16815260200190815260200160002054905034600b60003373ffffffffffffffffffffffffffffffffffffffff1673ffffffffffffffffffffffffffffffffffffffff16815260200190815260200160002060008282546114b49190612ff4565b9250508190555034600860008282546114cd9190612ff4565b92505081905550670de0b6b3a7640000600c60003373ffffffffffffffffffffffffffffffffffffffff1673ffffffffffffffffffffffffffffffffffffffff16815260200190815260200160002054600b60003373ffffffffffffffffffffffffffffffffffffffff1673ffffffffffffffffffffffffffffffffffffffff16815260200190815260200160002054611567919061307b565b106115ce576001600c60003373ffffffffffffffffffffffffffffffffffffffff1673ffffffffffffffffffffffffffffffffffffffff16815260200190815260200160002060008282546115bc9190612ff4565b925050819055506115cc33612081565b505b343373ffffffffffffffffffffffffffffffffffffffff167f906faaf913a60f38b5e8f2d6f5b163239bac2d994fa1a5d21751a51587a9405760405160405180910390a3506001600681905550565b6000600560008473ffffffffffffffffffffffffffffffffffffffff1673ffffffffffffffffffffffffffffffffffffffff16815260200190815260200160002060008373ffffffffffffffffffffffffffffffffffffffff1673ffffffffffffffffffffffffffffffffffffffff16815260200190815260200160002060009054906101000a900460ff16905092915050565b7f000000000000000000000000000000000000000000000000000000000000000073ffffffffffffffffffffffffffffffffffffffff163373ffffffffffffffffffffffffffffffffffffffff161461173f576040517f08c379a000000000000000000000000000000000000000000000000000000000815260040161173690612cb5565b60405180910390fd5b7f00000000000000000000000000000000000000000000000000000000000000004211156117a2576040517f08c379a000000000000000000000000000000000000000000000000000000000815260040161179990612f15565b60405180910390fd5b7f000000000000000000000000000000000000000000000000000000000000000060085410611806576040517f08c379a00000000000000000000000000000000000000000000000000000000081526004016117fd90612d75565b60405180910390fd5b6001600760006101000a81548160ff021916908315150217905550600760009054906101000a900460ff1615157f00000000000000000000000000000000000000000000000000000000000000007fd2c8eb85bf4bb8dcf8b602bd40a95e69f66fc720c0e336290893b86c3943a4d960405160405180910390a3565b60007f01ffc9a7000000000000000000000000000000000000000000000000000000007bffffffffffffffffffffffffffffffffffffffffffffffffffffffff1916827bffffffffffffffffffffffffffffffffffffffffffffffffffffffff1916149050919050565b6118f5816120b3565b611934576040517f08c379a000000000000000000000000000000000000000000000000000000000815260040161192b90612e35565b60405180910390fd5b50565b600033905090565b816004600083815260200190815260200160002060006101000a81548173ffffffffffffffffffffffffffffffffffffffff021916908373ffffffffffffffffffffffffffffffffffffffff160217905550808273ffffffffffffffffffffffffffffffffffffffff166119b283610d38565b73ffffffffffffffffffffffffffffffffffffffff167f8c5be1e5ebec7d5bd14f71427d1e84f3dd0314c0f7b2291e5b200ac8c7c3b92560405160405180910390a45050565b600080611a0483610d38565b90508073ffffffffffffffffffffffffffffffffffffffff168473ffffffffffffffffffffffffffffffffffffffff161480611a465750611a45818561161d565b5b80611a8457508373ffffffffffffffffffffffffffffffffffffffff16611a6c84610879565b73ffffffffffffffffffffffffffffffffffffffff16145b91505092915050565b8273ffffffffffffffffffffffffffffffffffffffff16611aad82610d38565b73ffffffffffffffffffffffffffffffffffffffff1614611b03576040517f08c379a0000000000000000000000000000000000000000000000000000000008152600401611afa90612cf5565b60405180910390fd5b600073ffffffffffffffffffffffffffffffffffffffff168273ffffffffffffffffffffffffffffffffffffffff161415611b73576040517f08c379a0000000000000000000000000000000000000000000000000000000008152600401611b6a90612d35565b60405180910390fd5b611b7e83838361211f565b611b8960008261193f565b6001600360008573ffffffffffffffffffffffffffffffffffffffff1673ffffffffffffffffffffffffffffffffffffffff1681526020019081526020016000206000828254611bd9919061307b565b925050819055506001600360008473ffffffffffffffffffffffffffffffffffffffff1673ffffffffffffffffffffffffffffffffffffffff1681526020019081526020016000206000828254611c309190612ff4565b92505081905550816002600083815260200190815260200160002060006101000a81548173ffffffffffffffffffffffffffffffffffffffff021916908373ffffffffffffffffffffffffffffffffffffffff160217905550808273ffffffffffffffffffffffffffffffffffffffff168473ffffffffffffffffffffffffffffffffffffffff167fddf252ad1be2c89b69c2b068fc378daa952ba7f163c4a11628f55a4df523b3ef60405160405180910390a4611cef838383612124565b505050565b8173ffffffffffffffffffffffffffffffffffffffff168373ffffffffffffffffffffffffffffffffffffffff161415611d63576040517f08c379a0000000000000000000000000000000000000000000000000000000008152600401611d5a90612d55565b60405180910390fd5b80600560008573ffffffffffffffffffffffffffffffffffffffff1673ffffffffffffffffffffffffffffffffffffffff16815260200190815260200160002060008473ffffffffffffffffffffffffffffffffffffffff1673ffffffffffffffffffffffffffffffffffffffff16815260200190815260200160002060006101000a81548160ff0219169083151502179055508173ffffffffffffffffffffffffffffffffffffffff168373ffffffffffffffffffffffffffffffffffffffff167f17307eab39ab6107e8899845ad3d59bd9653f200f220920489ca2b5937696c3183604051611e549190612c78565b60405180910390a3505050565b611e6c848484611a8d565b611e7884848484612129565b611eb7576040517f08c379a0000000000000000000000000000000000000000000000000000000008152600401611eae90612cd5565b60405180910390fd5b50505050565b606060405180602001604052806000815250905090565b60606000821415611f1c576040518060400160405280600181526020017f3000000000000000000000000000000000000000000000000000000000000000815250905061207c565b600082905060005b60008214611f4e578080611f37906131c8565b915050600a82611f47919061304a565b9150611f24565b60008167ffffffffffffffff811115611f90577f4e487b7100000000000000000000000000000000000000000000000000000000600052604160045260246000fd5b6040519080825280601f01601f191660200182016040528015611fc25781602001600182028036833780820191505090505b5090505b6000851461207557600182611fdb919061307b565b9150600a85611fea9190613211565b6030611ff69190612ff4565b60f81b818381518110612032577f4e487b7100000000000000000000000000000000000000000000000000000000600052603260045260246000fd5b60200101907effffffffffffffffffffffffffffffffffffffffffffffffffffffffffffff1916908160001a905350600a8561206e919061304a565b9450611fc6565b8093505050505b919050565b60006001600a60008282546120969190612ff4565b925050819055506120a982600a546122c0565b600a549050919050565b60008073ffffffffffffffffffffffffffffffffffffffff166002600084815260200190815260200160002060009054906101000a900473ffffffffffffffffffffffffffffffffffffffff1673ffffffffffffffffffffffffffffffffffffffff1614159050919050565b505050565b505050565b600061214a8473ffffffffffffffffffffffffffffffffffffffff166122de565b156122b3578373ffffffffffffffffffffffffffffffffffffffff1663150b7a02612173611937565b8786866040518563ffffffff1660e01b81526004016121959493929190612c2c565b602060405180830381600087803b1580156121af57600080fd5b505af19250505080156121e057506040513d601f19601f820116820180604052508101906121dd91906127d7565b60015b612263573d8060008114612210576040519150601f19603f3d011682016040523d82523d6000602084013e612215565b606091505b5060008151141561225b576040517f08c379a000000000000000000000000000000000000000000000000000000000815260040161225290612cd5565b60405180910390fd5b805181602001fd5b63150b7a0260e01b7bffffffffffffffffffffffffffffffffffffffffffffffffffffffff1916817bffffffffffffffffffffffffffffffffffffffffffffffffffffffff1916149150506122b8565b600190505b949350505050565b6122da828260405180602001604052806000815250612301565b5050565b6000808273ffffffffffffffffffffffffffffffffffffffff163b119050919050565b61230b838361235c565b6123186000848484612129565b612357576040517f08c379a000000000000000000000000000000000000000000000000000000000815260040161234e90612cd5565b60405180910390fd5b505050565b600073ffffffffffffffffffffffffffffffffffffffff168273ffffffffffffffffffffffffffffffffffffffff1614156123cc576040517f08c379a00000000000000000000000000000000000000000000000000000000081526004016123c390612dd5565b60405180910390fd5b6123d5816120b3565b15612415576040517f08c379a000000000000000000000000000000000000000000000000000000000815260040161240c90612d15565b60405180910390fd5b6124216000838361211f565b6001600360008473ffffffffffffffffffffffffffffffffffffffff1673ffffffffffffffffffffffffffffffffffffffff16815260200190815260200160002060008282546124719190612ff4565b92505081905550816002600083815260200190815260200160002060006101000a81548173ffffffffffffffffffffffffffffffffffffffff021916908373ffffffffffffffffffffffffffffffffffffffff160217905550808273ffffffffffffffffffffffffffffffffffffffff16600073ffffffffffffffffffffffffffffffffffffffff167fddf252ad1be2c89b69c2b068fc378daa952ba7f163c4a11628f55a4df523b3ef60405160405180910390a461253260008383612124565b5050565b600061254961254484612f75565b612f50565b90508281526020810184848401111561256157600080fd5b61256c848285613123565b509392505050565b60008135905061258381613750565b92915050565b60008135905061259881613767565b92915050565b6000813590506125ad8161377e565b92915050565b6000815190506125c28161377e565b92915050565b600082601f8301126125d957600080fd5b81356125e9848260208601612536565b91505092915050565b60008135905061260181613795565b92915050565b60006020828403121561261957600080fd5b600061262784828501612574565b91505092915050565b6000806040838503121561264357600080fd5b600061265185828601612574565b925050602061266285828601612574565b9150509250929050565b60008060006060848603121561268157600080fd5b600061268f86828701612574565b93505060206126a086828701612574565b92505060406126b1868287016125f2565b9150509250925092565b600080600080608085870312156126d157600080fd5b60006126df87828801612574565b94505060206126f087828801612574565b9350506040612701878288016125f2565b925050606085013567ffffffffffffffff81111561271e57600080fd5b61272a878288016125c8565b91505092959194509250565b6000806040838503121561274957600080fd5b600061275785828601612574565b925050602061276885828601612589565b9150509250929050565b6000806040838503121561278557600080fd5b600061279385828601612574565b92505060206127a4858286016125f2565b9150509250929050565b6000602082840312156127c057600080fd5b60006127ce8482850161259e565b91505092915050565b6000602082840312156127e957600080fd5b60006127f7848285016125b3565b91505092915050565b60006020828403121561281257600080fd5b6000612820848285016125f2565b91505092915050565b612832816130af565b82525050565b612841816130c1565b82525050565b600061285282612fa6565b61285c8185612fbc565b935061286c818560208601613132565b612875816132fe565b840191505092915050565b600061288b82612fb1565b6128958185612fd8565b93506128a5818560208601613132565b6128ae816132fe565b840191505092915050565b60006128c482612fb1565b6128ce8185612fe9565b93506128de818560208601613132565b80840191505092915050565b60006128f7601383612fd8565b91506129028261330f565b602082019050919050565b600061291a603283612fd8565b915061292582613338565b604082019050919050565b600061293d602583612fd8565b915061294882613387565b604082019050919050565b6000612960601c83612fd8565b915061296b826133d6565b602082019050919050565b6000612983602483612fd8565b915061298e826133ff565b604082019050919050565b60006129a6601983612fd8565b91506129b18261344e565b602082019050919050565b60006129c9601483612fd8565b91506129d482613477565b602082019050919050565b60006129ec602983612fd8565b91506129f7826134a0565b604082019050919050565b6000612a0f603e83612fd8565b9150612a1a826134ef565b604082019050919050565b6000612a32602083612fd8565b9150612a3d8261353e565b602082019050919050565b6000612a55601483612fd8565b9150612a6082613567565b602082019050919050565b6000612a78601083612fd8565b9150612a8382613590565b602082019050919050565b6000612a9b601883612fd8565b9150612aa6826135b9565b602082019050919050565b6000612abe602183612fd8565b9150612ac9826135e2565b604082019050919050565b6000612ae1601d83612fd8565b9150612aec82613631565b602082019050919050565b6000612b04600083612fcd565b9150612b0f8261365a565b600082019050919050565b6000612b27601383612fd8565b9150612b328261365d565b602082019050919050565b6000612b4a601683612fd8565b9150612b5582613686565b602082019050919050565b6000612b6d602e83612fd8565b9150612b78826136af565b604082019050919050565b6000612b90601f83612fd8565b9150612b9b826136fe565b602082019050919050565b6000612bb3601183612fd8565b9150612bbe82613727565b602082019050919050565b612bd281613119565b82525050565b6000612be482856128b9565b9150612bf082846128b9565b91508190509392505050565b6000612c0782612af7565b9150819050919050565b6000602082019050612c266000830184612829565b92915050565b6000608082019050612c416000830187612829565b612c4e6020830186612829565b612c5b6040830185612bc9565b8181036060830152612c6d8184612847565b905095945050505050565b6000602082019050612c8d6000830184612838565b92915050565b60006020820190508181036000830152612cad8184612880565b905092915050565b60006020820190508181036000830152612cce816128ea565b9050919050565b60006020820190508181036000830152612cee8161290d565b9050919050565b60006020820190508181036000830152612d0e81612930565b9050919050565b60006020820190508181036000830152612d2e81612953565b9050919050565b60006020820190508181036000830152612d4e81612976565b9050919050565b60006020820190508181036000830152612d6e81612999565b9050919050565b60006020820190508181036000830152612d8e816129bc565b9050919050565b60006020820190508181036000830152612dae816129df565b9050919050565b60006020820190508181036000830152612dce81612a02565b9050919050565b60006020820190508181036000830152612dee81612a25565b9050919050565b60006020820190508181036000830152612e0e81612a48565b9050919050565b60006020820190508181036000830152612e2e81612a6b565b9050919050565b60006020820190508181036000830152612e4e81612a8e565b9050919050565b60006020820190508181036000830152612e6e81612ab1565b9050919050565b60006020820190508181036000830152612e8e81612ad4565b9050919050565b60006020820190508181036000830152612eae81612b1a565b9050919050565b60006020820190508181036000830152612ece81612b3d565b9050919050565b60006020820190508181036000830152612eee81612b60565b9050919050565b60006020820190508181036000830152612f0e81612b83565b9050919050565b60006020820190508181036000830152612f2e81612ba6565b9050919050565b6000602082019050612f4a6000830184612bc9565b92915050565b6000612f5a612f6b565b9050612f668282613197565b919050565b6000604051905090565b600067ffffffffffffffff821115612f9057612f8f6132cf565b5b612f99826132fe565b9050602081019050919050565b600081519050919050565b600081519050919050565b600082825260208201905092915050565b600081905092915050565b600082825260208201905092915050565b600081905092915050565b6000612fff82613119565b915061300a83613119565b9250827fffffffffffffffffffffffffffffffffffffffffffffffffffffffffffffffff0382111561303f5761303e613242565b5b828201905092915050565b600061305582613119565b915061306083613119565b9250826130705761306f613271565b5b828204905092915050565b600061308682613119565b915061309183613119565b9250828210156130a4576130a3613242565b5b828203905092915050565b60006130ba826130f9565b9050919050565b60008115159050919050565b60007fffffffff0000000000000000000000000000000000000000000000000000000082169050919050565b600073ffffffffffffffffffffffffffffffffffffffff82169050919050565b6000819050919050565b82818337600083830152505050565b60005b83811015613150578082015181840152602081019050613135565b8381111561315f576000848401525b50505050565b6000600282049050600182168061317d57607f821691505b60208210811415613191576131906132a0565b5b50919050565b6131a0826132fe565b810181811067ffffffffffffffff821117156131bf576131be6132cf565b5b80604052505050565b60006131d382613119565b91507fffffffffffffffffffffffffffffffffffffffffffffffffffffffffffffffff82141561320657613205613242565b5b600182019050919050565b600061321c82613119565b915061322783613119565b92508261323757613236613271565b5b828206905092915050565b7f4e487b7100000000000000000000000000000000000000000000000000000000600052601160045260246000fd5b7f4e487b7100000000000000000000000000000000000000000000000000000000600052601260045260246000fd5b7f4e487b7100000000000000000000000000000000000000000000000000000000600052602260045260246000fd5b7f4e487b7100000000000000000000000000000000000000000000000000000000600052604160045260246000fd5b6000601f19601f8301169050919050565b7f6e6f742070726f6a6563742063726561746f7200000000000000000000000000600082015250565b7f4552433732313a207472616e7366657220746f206e6f6e20455243373231526560008201527f63656976657220696d706c656d656e7465720000000000000000000000000000602082015250565b7f4552433732313a207472616e736665722066726f6d20696e636f72726563742060008201527f6f776e6572000000000000000000000000000000000000000000000000000000602082015250565b7f4552433732313a20746f6b656e20616c7265616479206d696e74656400000000600082015250565b7f4552433732313a207472616e7366657220746f20746865207a65726f2061646460008201527f7265737300000000000000000000000000000000000000000000000000000000602082015250565b7f4552433732313a20617070726f766520746f2063616c6c657200000000000000600082015250565b7f70726f6a65637420676f616c2072656163686564000000000000000000000000600082015250565b7f4552433732313a2061646472657373207a65726f206973206e6f74206120766160008201527f6c6964206f776e65720000000000000000000000000000000000000000000000602082015250565b7f4552433732313a20617070726f76652063616c6c6572206973206e6f7420746f60008201527f6b656e206f776e6572206e6f7220617070726f76656420666f7220616c6c0000602082015250565b7f4552433732313a206d696e7420746f20746865207a65726f2061646472657373600082015250565b7f70726f6a6563742069732063616e63656c6c6564000000000000000000000000600082015250565b7f616c726561647920776974686472657700000000000000000000000000000000600082015250565b7f4552433732313a20696e76616c696420746f6b656e2049440000000000000000600082015250565b7f4552433732313a20617070726f76616c20746f2063757272656e74206f776e6560008201527f7200000000000000000000000000000000000000000000000000000000000000602082015250565b7f6d696e696d756d20636f6e747269626974696f6e20302e303120455448000000600082015250565b50565b7f6f6e6c792070726f6a656374206661696c656400000000000000000000000000600082015250565b7f70726f6a656374206e6f74207375636365737366756c00000000000000000000600082015250565b7f4552433732313a2063616c6c6572206973206e6f7420746f6b656e206f776e6560008201527f72206e6f7220617070726f766564000000000000000000000000000000000000602082015250565b7f5265656e7472616e637947756172643a207265656e7472616e742063616c6c00600082015250565b7f70726f6a65637420697320636c6f736564000000000000000000000000000000600082015250565b613759816130af565b811461376457600080fd5b50565b613770816130c1565b811461377b57600080fd5b50565b613787816130cd565b811461379257600080fd5b50565b61379e81613119565b81146137a957600080fd5b5056fea2646970667358221220948b24c92548af21b284070125a548f08462237b8a49d32bd81d01cd41699dd864736f6c63430008040033",
  "linkReferences": {},
  "deployedLinkReferences": {}
}