{
  "_format": "hh-sol-artifact-1",
  "contractName": "Project",
  "sourceName": "contracts/Project.sol",
  "abi": [
    {
      "inputs": [
        {
          "internalType": "address",
          "name": "_creator",
          "type": "address"
        },
        {
          "internalType": "uint256",
          "name": "_projectId",
          "type": "uint256"
        },
        {
          "internalType": "uint256",
          "name": "_goal",
          "type": "uint256"
        },
        {
          "internalType": "string",
          "name": "_badgeName",
          "type": "string"
        },
        {
          "internalType": "string",
          "name": "_badgeSymbol",
          "type": "string"
        }
      ],
      "stateMutability": "nonpayable",
      "type": "constructor"
    },
    {
      "anonymous": false,
      "inputs": [
        {
          "indexed": true,
          "internalType": "address",
          "name": "owner",
          "type": "address"
        },
        {
          "indexed": true,
          "internalType": "address",
          "name": "approved",
          "type": "address"
        },
        {
          "indexed": true,
          "internalType": "uint256",
          "name": "tokenId",
          "type": "uint256"
        }
      ],
      "name": "Approval",
      "type": "event"
    },
    {
      "anonymous": false,
      "inputs": [
        {
          "indexed": true,
          "internalType": "address",
          "name": "owner",
          "type": "address"
        },
        {
          "indexed": true,
          "internalType": "address",
          "name": "operator",
          "type": "address"
        },
        {
          "indexed": false,
          "internalType": "bool",
          "name": "approved",
          "type": "bool"
        }
      ],
      "name": "ApprovalForAll",
      "type": "event"
    },
    {
      "anonymous": false,
      "inputs": [
        {
          "indexed": true,
          "internalType": "address",
          "name": "contributor",
          "type": "address"
        },
        {
          "indexed": true,
          "internalType": "uint256",
          "name": "amount",
          "type": "uint256"
        }
      ],
      "name": "Contribute",
      "type": "event"
    },
    {
      "anonymous": false,
      "inputs": [
        {
          "indexed": true,
          "internalType": "uint256",
          "name": "id",
          "type": "uint256"
        },
        {
          "indexed": true,
          "internalType": "address",
          "name": "creator",
          "type": "address"
        },
        {
          "indexed": false,
          "internalType": "uint256",
          "name": "amount",
          "type": "uint256"
        }
      ],
      "name": "CreatorWithdraw",
      "type": "event"
    },
    {
      "anonymous": false,
      "inputs": [
        {
          "indexed": true,
          "internalType": "uint256",
          "name": "id",
          "type": "uint256"
        },
        {
          "indexed": true,
          "internalType": "bool",
          "name": "isCancelled",
          "type": "bool"
        }
      ],
      "name": "ProjectCancel",
      "type": "event"
    },
    {
      "anonymous": false,
      "inputs": [
        {
          "indexed": true,
          "internalType": "address",
          "name": "from",
          "type": "address"
        },
        {
          "indexed": true,
          "internalType": "address",
          "name": "to",
          "type": "address"
        },
        {
          "indexed": true,
          "internalType": "uint256",
          "name": "tokenId",
          "type": "uint256"
        }
      ],
      "name": "Transfer",
      "type": "event"
    },
    {
      "anonymous": false,
      "inputs": [
        {
          "indexed": true,
          "internalType": "uint256",
          "name": "id",
          "type": "uint256"
        },
        {
          "indexed": true,
          "internalType": "address",
          "name": "contributor",
          "type": "address"
        },
        {
          "indexed": true,
          "internalType": "uint256",
          "name": "amount",
          "type": "uint256"
        }
      ],
      "name": "UserWithdraw",
      "type": "event"
    },
    {
      "inputs": [
        {
          "internalType": "address",
          "name": "to",
          "type": "address"
        },
        {
          "internalType": "uint256",
          "name": "tokenId",
          "type": "uint256"
        }
      ],
      "name": "approve",
      "outputs": [],
      "stateMutability": "nonpayable",
      "type": "function"
    },
    {
      "inputs": [],
      "name": "badgeIds",
      "outputs": [
        {
          "internalType": "uint256",
          "name": "",
          "type": "uint256"
        }
      ],
      "stateMutability": "view",
      "type": "function"
    },
    {
      "inputs": [
        {
          "internalType": "address",
          "name": "owner",
          "type": "address"
        }
      ],
      "name": "balanceOf",
      "outputs": [
        {
          "internalType": "uint256",
          "name": "",
          "type": "uint256"
        }
      ],
      "stateMutability": "view",
      "type": "function"
    },
    {
      "inputs": [],
      "name": "cancel",
      "outputs": [],
      "stateMutability": "nonpayable",
      "type": "function"
    },
    {
      "inputs": [],
      "name": "closeDate",
      "outputs": [
        {
          "internalType": "uint256",
          "name": "",
          "type": "uint256"
        }
      ],
      "stateMutability": "view",
      "type": "function"
    },
    {
      "inputs": [],
      "name": "contribute",
      "outputs": [],
      "stateMutability": "payable",
      "type": "function"
    },
    {
      "inputs": [],
      "name": "contributed",
      "outputs": [
        {
          "internalType": "uint256",
          "name": "",
          "type": "uint256"
        }
      ],
      "stateMutability": "view",
      "type": "function"
    },
    {
      "inputs": [],
      "name": "contributionsLeft",
      "outputs": [
        {
          "internalType": "uint256",
          "name": "",
          "type": "uint256"
        }
      ],
      "stateMutability": "view",
      "type": "function"
    },
    {
      "inputs": [],
      "name": "contributorWithdraw",
      "outputs": [],
      "stateMutability": "nonpayable",
      "type": "function"
    },
    {
      "inputs": [
        {
          "internalType": "address",
          "name": "",
          "type": "address"
        }
      ],
      "name": "contributors",
      "outputs": [
        {
          "internalType": "uint256",
          "name": "",
          "type": "uint256"
        }
      ],
      "stateMutability": "view",
      "type": "function"
    },
    {
      "inputs": [],
      "name": "creator",
      "outputs": [
        {
          "internalType": "address",
          "name": "",
          "type": "address"
        }
      ],
      "stateMutability": "view",
      "type": "function"
    },
    {
      "inputs": [
        {
          "internalType": "uint256",
          "name": "_amount",
          "type": "uint256"
        }
      ],
      "name": "creatorWithdraw",
      "outputs": [],
      "stateMutability": "nonpayable",
      "type": "function"
    },
    {
      "inputs": [],
      "name": "daysOpen",
      "outputs": [
        {
          "internalType": "uint256",
          "name": "",
          "type": "uint256"
        }
      ],
      "stateMutability": "view",
      "type": "function"
    },
    {
      "inputs": [
        {
          "internalType": "uint256",
          "name": "tokenId",
          "type": "uint256"
        }
      ],
      "name": "getApproved",
      "outputs": [
        {
          "internalType": "address",
          "name": "",
          "type": "address"
        }
      ],
      "stateMutability": "view",
      "type": "function"
    },
    {
      "inputs": [],
      "name": "goal",
      "outputs": [
        {
          "internalType": "uint256",
          "name": "",
          "type": "uint256"
        }
      ],
      "stateMutability": "view",
      "type": "function"
    },
    {
      "inputs": [
        {
          "internalType": "address",
          "name": "owner",
          "type": "address"
        },
        {
          "internalType": "address",
          "name": "operator",
          "type": "address"
        }
      ],
      "name": "isApprovedForAll",
      "outputs": [
        {
          "internalType": "bool",
          "name": "",
          "type": "bool"
        }
      ],
      "stateMutability": "view",
      "type": "function"
    },
    {
      "inputs": [],
      "name": "isCancelled",
      "outputs": [
        {
          "internalType": "bool",
          "name": "",
          "type": "bool"
        }
      ],
      "stateMutability": "view",
      "type": "function"
    },
    {
      "inputs": [],
      "name": "minContribution",
      "outputs": [
        {
          "internalType": "uint256",
          "name": "",
          "type": "uint256"
        }
      ],
      "stateMutability": "view",
      "type": "function"
    },
    {
      "inputs": [],
      "name": "name",
      "outputs": [
        {
          "internalType": "string",
          "name": "",
          "type": "string"
        }
      ],
      "stateMutability": "view",
      "type": "function"
    },
    {
      "inputs": [
        {
          "internalType": "uint256",
          "name": "tokenId",
          "type": "uint256"
        }
      ],
      "name": "ownerOf",
      "outputs": [
        {
          "internalType": "address",
          "name": "",
          "type": "address"
        }
      ],
      "stateMutability": "view",
      "type": "function"
    },
    {
      "inputs": [],
      "name": "projectId",
      "outputs": [
        {
          "internalType": "uint256",
          "name": "",
          "type": "uint256"
        }
      ],
      "stateMutability": "view",
      "type": "function"
    },
    {
      "inputs": [
        {
          "internalType": "address",
          "name": "from",
          "type": "address"
        },
        {
          "internalType": "address",
          "name": "to",
          "type": "address"
        },
        {
          "internalType": "uint256",
          "name": "tokenId",
          "type": "uint256"
        }
      ],
      "name": "safeTransferFrom",
      "outputs": [],
      "stateMutability": "nonpayable",
      "type": "function"
    },
    {
      "inputs": [
        {
          "internalType": "address",
          "name": "from",
          "type": "address"
        },
        {
          "internalType": "address",
          "name": "to",
          "type": "address"
        },
        {
          "internalType": "uint256",
          "name": "tokenId",
          "type": "uint256"
        },
        {
          "internalType": "bytes",
          "name": "_data",
          "type": "bytes"
        }
      ],
      "name": "safeTransferFrom",
      "outputs": [],
      "stateMutability": "nonpayable",
      "type": "function"
    },
    {
      "inputs": [
        {
          "internalType": "address",
          "name": "operator",
          "type": "address"
        },
        {
          "internalType": "bool",
          "name": "approved",
          "type": "bool"
        }
      ],
      "name": "setApprovalForAll",
      "outputs": [],
      "stateMutability": "nonpayable",
      "type": "function"
    },
    {
      "inputs": [],
      "name": "startDate",
      "outputs": [
        {
          "internalType": "uint256",
          "name": "",
          "type": "uint256"
        }
      ],
      "stateMutability": "view",
      "type": "function"
    },
    {
      "inputs": [
        {
          "internalType": "bytes4",
          "name": "interfaceId",
          "type": "bytes4"
        }
      ],
      "name": "supportsInterface",
      "outputs": [
        {
          "internalType": "bool",
          "name": "",
          "type": "bool"
        }
      ],
      "stateMutability": "view",
      "type": "function"
    },
    {
      "inputs": [],
      "name": "symbol",
      "outputs": [
        {
          "internalType": "string",
          "name": "",
          "type": "string"
        }
      ],
      "stateMutability": "view",
      "type": "function"
    },
    {
      "inputs": [
        {
          "internalType": "uint256",
          "name": "tokenId",
          "type": "uint256"
        }
      ],
      "name": "tokenURI",
      "outputs": [
        {
          "internalType": "string",
          "name": "",
          "type": "string"
        }
      ],
      "stateMutability": "view",
      "type": "function"
    },
    {
      "inputs": [
        {
          "internalType": "address",
          "name": "from",
          "type": "address"
        },
        {
          "internalType": "address",
          "name": "to",
          "type": "address"
        },
        {
          "internalType": "uint256",
          "name": "tokenId",
          "type": "uint256"
        }
      ],
      "name": "transferFrom",
      "outputs": [],
      "stateMutability": "nonpayable",
      "type": "function"
    }
  ],
  "bytecode": "0x6101206040523480156200001257600080fd5b5060405162003f9f38038062003f9f83398181016040528101906200003891906200027e565b81818160009080519060200190620000529291906200012e565b5080600190805190602001906200006b9291906200012e565b505050662386f26fc10000831015620000bb576040517f08c379a0000000000000000000000000000000000000000000000000000000008152600401620000b29062000359565b60405180910390fd5b8473ffffffffffffffffffffffffffffffffffffffff1660808173ffffffffffffffffffffffffffffffffffffffff1660601b815250508360a081815250508261010081815250504260c0818152505062278d00426200011c9190620003eb565b60e08181525050505050505062000623565b8280546200013c90620004bc565b90600052602060002090601f016020900481019282620001605760008555620001ac565b82601f106200017b57805160ff1916838001178555620001ac565b82800160010185558215620001ac579182015b82811115620001ab5782518255916020019190600101906200018e565b5b509050620001bb9190620001bf565b5090565b5b80821115620001da576000816000905550600101620001c0565b5090565b6000620001f5620001ef84620003a4565b6200037b565b9050828152602081018484840111156200020e57600080fd5b6200021b84828562000486565b509392505050565b6000815190506200023481620005ef565b92915050565b600082601f8301126200024c57600080fd5b81516200025e848260208601620001de565b91505092915050565b600081519050620002788162000609565b92915050565b600080600080600060a086880312156200029757600080fd5b6000620002a78882890162000223565b9550506020620002ba8882890162000267565b9450506040620002cd8882890162000267565b935050606086015167ffffffffffffffff811115620002eb57600080fd5b620002f9888289016200023a565b925050608086015167ffffffffffffffff8111156200031757600080fd5b62000325888289016200023a565b9150509295509295909350565b600062000341600c83620003da565b91506200034e82620005c6565b602082019050919050565b60006020820190508181036000830152620003748162000332565b9050919050565b6000620003876200039a565b9050620003958282620004f2565b919050565b6000604051905090565b600067ffffffffffffffff821115620003c257620003c162000586565b5b620003cd82620005b5565b9050602081019050919050565b600082825260208201905092915050565b6000620003f8826200047c565b915062000405836200047c565b9250827fffffffffffffffffffffffffffffffffffffffffffffffffffffffffffffffff038211156200043d576200043c62000528565b5b828201905092915050565b600062000455826200045c565b9050919050565b600073ffffffffffffffffffffffffffffffffffffffff82169050919050565b6000819050919050565b60005b83811015620004a657808201518184015260208101905062000489565b83811115620004b6576000848401525b50505050565b60006002820490506001821680620004d557607f821691505b60208210811415620004ec57620004eb62000557565b5b50919050565b620004fd82620005b5565b810181811067ffffffffffffffff821117156200051f576200051e62000586565b5b80604052505050565b7f4e487b7100000000000000000000000000000000000000000000000000000000600052601160045260246000fd5b7f4e487b7100000000000000000000000000000000000000000000000000000000600052602260045260246000fd5b7f4e487b7100000000000000000000000000000000000000000000000000000000600052604160045260246000fd5b6000601f19601f8301169050919050565b7f676f616c20746f6f206c6f770000000000000000000000000000000000000000600082015250565b620005fa8162000448565b81146200060657600080fd5b50565b62000614816200047c565b81146200062057600080fd5b50565b60805160601c60a05160c05160e051610100516138d2620006cd60003960008181610ae801528181610d1d01528181610fc6015281816113f80152611753015260008181610abe01528181610d6101528181610f9b0152818161134501526116a001526000610a06015260008181610ca801528181610cf90152818161110d01526117e40152600081816107b301528181610ef5015281816110d6015261161201526138d26000f3fe6080604052600436106101c25760003560e01c806354469540116100f7578063a49da4b311610095578063c87b56dd11610064578063c87b56dd14610634578063d7bb99ba14610671578063e985e9c51461067b578063ea8a1af0146106b8576101c2565b8063a49da4b31461058a578063aaffadf3146105b5578063b88d4fde146105e0578063c815faa814610609576101c2565b806371eb89f3116100d157806371eb89f3146104e257806395d89b411461050b57806395ee122114610536578063a22cb46514610561576101c2565b8063544695401461043d5780636352211e1461046857806370a08231146104a5576101c2565b80631f6d4942116101645780633fafa1271161013e5780633fafa1271461039357806340193883146103be57806342842e0e146103e957806348d79b6d14610412576101c2565b80631f6d49421461031657806323b872dd1461035357806336e5ddc91461037c576101c2565b8063081812fc116101a0578063081812fc1461025a578063095ea7b3146102975780630b97bc86146102c0578063112f1907146102eb576101c2565b806301ffc9a7146101c757806302d05d3f1461020457806306fdde031461022f575b600080fd5b3480156101d357600080fd5b506101ee60048036038101906101e991906126e2565b6106cf565b6040516101fb9190612bf2565b60405180910390f35b34801561021057600080fd5b506102196107b1565b6040516102269190612b8b565b60405180910390f35b34801561023b57600080fd5b506102446107d5565b6040516102519190612c0d565b60405180910390f35b34801561026657600080fd5b50610281600480360381019061027c9190612734565b610867565b60405161028e9190612b8b565b60405180910390f35b3480156102a357600080fd5b506102be60048036038101906102b991906126a6565b6108ec565b005b3480156102cc57600080fd5b506102d5610a04565b6040516102e29190612eef565b60405180910390f35b3480156102f757600080fd5b50610300610a28565b60405161030d9190612eef565b60405180910390f35b34801561032257600080fd5b5061033d6004803603810190610338919061253b565b610a2e565b60405161034a9190612eef565b60405180910390f35b34801561035f57600080fd5b5061037a600480360381019061037591906125a0565b610a46565b005b34801561038857600080fd5b50610391610aa6565b005b34801561039f57600080fd5b506103a8610cf7565b6040516103b59190612eef565b60405180910390f35b3480156103ca57600080fd5b506103d3610d1b565b6040516103e09190612eef565b60405180910390f35b3480156103f557600080fd5b50610410600480360381019061040b91906125a0565b610d3f565b005b34801561041e57600080fd5b50610427610d5f565b6040516104349190612eef565b60405180910390f35b34801561044957600080fd5b50610452610d83565b60405161045f9190612eef565b60405180910390f35b34801561047457600080fd5b5061048f600480360381019061048a9190612734565b610d89565b60405161049c9190612b8b565b60405180910390f35b3480156104b157600080fd5b506104cc60048036038101906104c7919061253b565b610e3b565b6040516104d99190612eef565b60405180910390f35b3480156104ee57600080fd5b5061050960048036038101906105049190612734565b610ef3565b005b34801561051757600080fd5b50610520611167565b60405161052d9190612c0d565b60405180910390f35b34801561054257600080fd5b5061054b6111f9565b6040516105589190612bf2565b60405180910390f35b34801561056d57600080fd5b506105886004803603810190610583919061266a565b61120c565b005b34801561059657600080fd5b5061059f611222565b6040516105ac9190612eef565b60405180910390f35b3480156105c157600080fd5b506105ca611229565b6040516105d79190612eef565b60405180910390f35b3480156105ec57600080fd5b50610607600480360381019061060291906125ef565b611234565b005b34801561061557600080fd5b5061061e611296565b60405161062b9190612eef565b60405180910390f35b34801561064057600080fd5b5061065b60048036038101906106569190612734565b61129c565b6040516106689190612c0d565b60405180910390f35b610679611343565b005b34801561068757600080fd5b506106a2600480360381019061069d9190612564565b61157c565b6040516106af9190612bf2565b60405180910390f35b3480156106c457600080fd5b506106cd611610565b005b60007f80ac58cd000000000000000000000000000000000000000000000000000000007bffffffffffffffffffffffffffffffffffffffffffffffffffffffff1916827bffffffffffffffffffffffffffffffffffffffffffffffffffffffff1916148061079a57507f5b5e139f000000000000000000000000000000000000000000000000000000007bffffffffffffffffffffffffffffffffffffffffffffffffffffffff1916827bffffffffffffffffffffffffffffffffffffffffffffffffffffffff1916145b806107aa57506107a982611831565b5b9050919050565b7f000000000000000000000000000000000000000000000000000000000000000081565b6060600080546107e49061311f565b80601f01602080910402602001604051908101604052809291908181526020018280546108109061311f565b801561085d5780601f106108325761010080835404028352916020019161085d565b820191906000526020600020905b81548152906001019060200180831161084057829003601f168201915b5050505050905090565b60006108728261189b565b6108b1576040517f08c379a00000000000000000000000000000000000000000000000000000000081526004016108a890612def565b60405180910390fd5b6004600083815260200190815260200160002060009054906101000a900473ffffffffffffffffffffffffffffffffffffffff169050919050565b60006108f782610d89565b90508073ffffffffffffffffffffffffffffffffffffffff168373ffffffffffffffffffffffffffffffffffffffff161415610968576040517f08c379a000000000000000000000000000000000000000000000000000000000815260040161095f90612e4f565b60405180910390fd5b8073ffffffffffffffffffffffffffffffffffffffff16610987611907565b73ffffffffffffffffffffffffffffffffffffffff1614806109b657506109b5816109b0611907565b61157c565b5b6109f5576040517f08c379a00000000000000000000000000000000000000000000000000000000081526004016109ec90612d4f565b60405180910390fd5b6109ff838361190f565b505050565b7f000000000000000000000000000000000000000000000000000000000000000081565b60075481565b600a6020528060005260406000206000915090505481565b610a57610a51611907565b826119c8565b610a96576040517f08c379a0000000000000000000000000000000000000000000000000000000008152600401610a8d90612e8f565b60405180910390fd5b610aa1838383611aa6565b505050565b600660009054906101000a900460ff1680610b0d57507f000000000000000000000000000000000000000000000000000000000000000042118015610b0c57507f0000000000000000000000000000000000000000000000000000000000000000600754105b5b610b4c576040517f08c379a0000000000000000000000000000000000000000000000000000000008152600401610b4390612cef565b60405180910390fd5b6000600a60003373ffffffffffffffffffffffffffffffffffffffff1673ffffffffffffffffffffffffffffffffffffffff16815260200190815260200160002054905060008111610bd3576040517f08c379a0000000000000000000000000000000000000000000000000000000008152600401610bca90612e2f565b60405180910390fd5b6000600a60003373ffffffffffffffffffffffffffffffffffffffff1673ffffffffffffffffffffffffffffffffffffffff1681526020019081526020016000208190555060003373ffffffffffffffffffffffffffffffffffffffff1682604051610c3e90612b76565b60006040518083038185875af1925050503d8060008114610c7b576040519150601f19603f3d011682016040523d82523d6000602084013e610c80565b606091505b5050905080610c8e57600080fd5b813373ffffffffffffffffffffffffffffffffffffffff167f00000000000000000000000000000000000000000000000000000000000000007f4c66b920a639025f8ebc944240d2c475af3965e15e407739a5330ec309f4ed4d60405160405180910390a45050565b7f000000000000000000000000000000000000000000000000000000000000000081565b7f000000000000000000000000000000000000000000000000000000000000000081565b610d5a83838360405180602001604052806000815250611234565b505050565b7f000000000000000000000000000000000000000000000000000000000000000081565b60085481565b6000806002600084815260200190815260200160002060009054906101000a900473ffffffffffffffffffffffffffffffffffffffff169050600073ffffffffffffffffffffffffffffffffffffffff168173ffffffffffffffffffffffffffffffffffffffff161415610e32576040517f08c379a0000000000000000000000000000000000000000000000000000000008152600401610e2990612d8f565b60405180910390fd5b80915050919050565b60008073ffffffffffffffffffffffffffffffffffffffff168273ffffffffffffffffffffffffffffffffffffffff161415610eac576040517f08c379a0000000000000000000000000000000000000000000000000000000008152600401610ea390612d6f565b60405180910390fd5b600360008373ffffffffffffffffffffffffffffffffffffffff1673ffffffffffffffffffffffffffffffffffffffff168152602001908152602001600020549050919050565b7f000000000000000000000000000000000000000000000000000000000000000073ffffffffffffffffffffffffffffffffffffffff163373ffffffffffffffffffffffffffffffffffffffff1614610f81576040517f08c379a0000000000000000000000000000000000000000000000000000000008152600401610f7890612c2f565b60405180910390fd5b600660009054906101000a900460ff16158015610fbd57507f000000000000000000000000000000000000000000000000000000000000000042115b8015610feb57507f000000000000000000000000000000000000000000000000000000000000000060075410155b61102a576040517f08c379a000000000000000000000000000000000000000000000000000000000815260040161102190612eaf565b60405180910390fd5b60008111801561103c57506007548111155b61104557600080fd5b80600860008282546110579190613035565b9250508190555060003373ffffffffffffffffffffffffffffffffffffffff168260405161108490612b76565b60006040518083038185875af1925050503d80600081146110c1576040519150601f19603f3d011682016040523d82523d6000602084013e6110c6565b606091505b50509050806110d457600080fd5b7f000000000000000000000000000000000000000000000000000000000000000073ffffffffffffffffffffffffffffffffffffffff167f00000000000000000000000000000000000000000000000000000000000000007f2f7d13f4b9ca353f0f3c6b0c6b2c724784ad130c765bc4a15c1cf1d4374b36ff8460405161115b9190612eef565b60405180910390a35050565b6060600180546111769061311f565b80601f01602080910402602001604051908101604052809291908181526020018280546111a29061311f565b80156111ef5780601f106111c4576101008083540402835291602001916111ef565b820191906000526020600020905b8154815290600101906020018083116111d257829003601f168201915b5050505050905090565b600660009054906101000a900460ff1681565b61121e611217611907565b8383611d0d565b5050565b62278d0081565b662386f26fc1000081565b61124561123f611907565b836119c8565b611284576040517f08c379a000000000000000000000000000000000000000000000000000000000815260040161127b90612e8f565b60405180910390fd5b61129084848484611e7a565b50505050565b60095481565b60606112a78261189b565b6112e6576040517f08c379a00000000000000000000000000000000000000000000000000000000081526004016112dd90612e0f565b60405180910390fd5b60006112f0611ed6565b90506000815111611310576040518060200160405280600081525061133b565b8061131a84611eed565b60405160200161132b929190612b52565b6040516020818303038152906040525b915050919050565b7f00000000000000000000000000000000000000000000000000000000000000004211156113a6576040517f08c379a000000000000000000000000000000000000000000000000000000000815260040161139d90612ecf565b60405180910390fd5b600660009054906101000a900460ff16156113f6576040517f08c379a00000000000000000000000000000000000000000000000000000000081526004016113ed90612dcf565b60405180910390fd5b7f00000000000000000000000000000000000000000000000000000000000000006007541061145a576040517f08c379a000000000000000000000000000000000000000000000000000000000815260040161145190612d0f565b60405180910390fd5b662386f26fc100003410156114a4576040517f08c379a000000000000000000000000000000000000000000000000000000000815260040161149b90612e6f565b60405180910390fd5b34600a60003373ffffffffffffffffffffffffffffffffffffffff1673ffffffffffffffffffffffffffffffffffffffff16815260200190815260200160002060008282546114f39190612fae565b92505081905550346007600082825461150c9190612fae565b92505081905550600754600881905550670de0b6b3a76400003410611536576115343361209a565b505b343373ffffffffffffffffffffffffffffffffffffffff167f906faaf913a60f38b5e8f2d6f5b163239bac2d994fa1a5d21751a51587a9405760405160405180910390a3565b6000600560008473ffffffffffffffffffffffffffffffffffffffff1673ffffffffffffffffffffffffffffffffffffffff16815260200190815260200160002060008373ffffffffffffffffffffffffffffffffffffffff1673ffffffffffffffffffffffffffffffffffffffff16815260200190815260200160002060009054906101000a900460ff16905092915050565b7f000000000000000000000000000000000000000000000000000000000000000073ffffffffffffffffffffffffffffffffffffffff163373ffffffffffffffffffffffffffffffffffffffff161461169e576040517f08c379a000000000000000000000000000000000000000000000000000000000815260040161169590612c2f565b60405180910390fd5b7f0000000000000000000000000000000000000000000000000000000000000000421115611701576040517f08c379a00000000000000000000000000000000000000000000000000000000081526004016116f890612ecf565b60405180910390fd5b600660009054906101000a900460ff1615611751576040517f08c379a000000000000000000000000000000000000000000000000000000000815260040161174890612dcf565b60405180910390fd5b7f0000000000000000000000000000000000000000000000000000000000000000600754106117b5576040517f08c379a00000000000000000000000000000000000000000000000000000000081526004016117ac90612d0f565b60405180910390fd5b6001600660006101000a81548160ff021916908315150217905550600660009054906101000a900460ff1615157f00000000000000000000000000000000000000000000000000000000000000007fd2c8eb85bf4bb8dcf8b602bd40a95e69f66fc720c0e336290893b86c3943a4d960405160405180910390a3565b60007f01ffc9a7000000000000000000000000000000000000000000000000000000007bffffffffffffffffffffffffffffffffffffffffffffffffffffffff1916827bffffffffffffffffffffffffffffffffffffffffffffffffffffffff1916149050919050565b60008073ffffffffffffffffffffffffffffffffffffffff166002600084815260200190815260200160002060009054906101000a900473ffffffffffffffffffffffffffffffffffffffff1673ffffffffffffffffffffffffffffffffffffffff1614159050919050565b600033905090565b816004600083815260200190815260200160002060006101000a81548173ffffffffffffffffffffffffffffffffffffffff021916908373ffffffffffffffffffffffffffffffffffffffff160217905550808273ffffffffffffffffffffffffffffffffffffffff1661198283610d89565b73ffffffffffffffffffffffffffffffffffffffff167f8c5be1e5ebec7d5bd14f71427d1e84f3dd0314c0f7b2291e5b200ac8c7c3b92560405160405180910390a45050565b60006119d38261189b565b611a12576040517f08c379a0000000000000000000000000000000000000000000000000000000008152600401611a0990612d2f565b60405180910390fd5b6000611a1d83610d89565b90508073ffffffffffffffffffffffffffffffffffffffff168473ffffffffffffffffffffffffffffffffffffffff161480611a8c57508373ffffffffffffffffffffffffffffffffffffffff16611a7484610867565b73ffffffffffffffffffffffffffffffffffffffff16145b80611a9d5750611a9c818561157c565b5b91505092915050565b8273ffffffffffffffffffffffffffffffffffffffff16611ac682610d89565b73ffffffffffffffffffffffffffffffffffffffff1614611b1c576040517f08c379a0000000000000000000000000000000000000000000000000000000008152600401611b1390612c6f565b60405180910390fd5b600073ffffffffffffffffffffffffffffffffffffffff168273ffffffffffffffffffffffffffffffffffffffff161415611b8c576040517f08c379a0000000000000000000000000000000000000000000000000000000008152600401611b8390612caf565b60405180910390fd5b611b978383836120cc565b611ba260008261190f565b6001600360008573ffffffffffffffffffffffffffffffffffffffff1673ffffffffffffffffffffffffffffffffffffffff1681526020019081526020016000206000828254611bf29190613035565b925050819055506001600360008473ffffffffffffffffffffffffffffffffffffffff1673ffffffffffffffffffffffffffffffffffffffff1681526020019081526020016000206000828254611c499190612fae565b92505081905550816002600083815260200190815260200160002060006101000a81548173ffffffffffffffffffffffffffffffffffffffff021916908373ffffffffffffffffffffffffffffffffffffffff160217905550808273ffffffffffffffffffffffffffffffffffffffff168473ffffffffffffffffffffffffffffffffffffffff167fddf252ad1be2c89b69c2b068fc378daa952ba7f163c4a11628f55a4df523b3ef60405160405180910390a4611d088383836120d1565b505050565b8173ffffffffffffffffffffffffffffffffffffffff168373ffffffffffffffffffffffffffffffffffffffff161415611d7c576040517f08c379a0000000000000000000000000000000000000000000000000000000008152600401611d7390612ccf565b60405180910390fd5b80600560008573ffffffffffffffffffffffffffffffffffffffff1673ffffffffffffffffffffffffffffffffffffffff16815260200190815260200160002060008473ffffffffffffffffffffffffffffffffffffffff1673ffffffffffffffffffffffffffffffffffffffff16815260200190815260200160002060006101000a81548160ff0219169083151502179055508173ffffffffffffffffffffffffffffffffffffffff168373ffffffffffffffffffffffffffffffffffffffff167f17307eab39ab6107e8899845ad3d59bd9653f200f220920489ca2b5937696c3183604051611e6d9190612bf2565b60405180910390a3505050565b611e85848484611aa6565b611e91848484846120d6565b611ed0576040517f08c379a0000000000000000000000000000000000000000000000000000000008152600401611ec790612c4f565b60405180910390fd5b50505050565b606060405180602001604052806000815250905090565b60606000821415611f35576040518060400160405280600181526020017f30000000000000000000000000000000000000000000000000000000000000008152509050612095565b600082905060005b60008214611f67578080611f5090613182565b915050600a82611f609190613004565b9150611f3d565b60008167ffffffffffffffff811115611fa9577f4e487b7100000000000000000000000000000000000000000000000000000000600052604160045260246000fd5b6040519080825280601f01601f191660200182016040528015611fdb5781602001600182028036833780820191505090505b5090505b6000851461208e57600182611ff49190613035565b9150600a8561200391906131cb565b603061200f9190612fae565b60f81b81838151811061204b577f4e487b7100000000000000000000000000000000000000000000000000000000600052603260045260246000fd5b60200101907effffffffffffffffffffffffffffffffffffffffffffffffffffffffffffff1916908160001a905350600a856120879190613004565b9450611fdf565b8093505050505b919050565b60006001600960008282546120af9190612fae565b925050819055506120c28260095461226d565b6009549050919050565b505050565b505050565b60006120f78473ffffffffffffffffffffffffffffffffffffffff16612447565b15612260578373ffffffffffffffffffffffffffffffffffffffff1663150b7a02612120611907565b8786866040518563ffffffff1660e01b81526004016121429493929190612ba6565b602060405180830381600087803b15801561215c57600080fd5b505af192505050801561218d57506040513d601f19601f8201168201806040525081019061218a919061270b565b60015b612210573d80600081146121bd576040519150601f19603f3d011682016040523d82523d6000602084013e6121c2565b606091505b50600081511415612208576040517f08c379a00000000000000000000000000000000000000000000000000000000081526004016121ff90612c4f565b60405180910390fd5b805181602001fd5b63150b7a0260e01b7bffffffffffffffffffffffffffffffffffffffffffffffffffffffff1916817bffffffffffffffffffffffffffffffffffffffffffffffffffffffff191614915050612265565b600190505b949350505050565b600073ffffffffffffffffffffffffffffffffffffffff168273ffffffffffffffffffffffffffffffffffffffff1614156122dd576040517f08c379a00000000000000000000000000000000000000000000000000000000081526004016122d490612daf565b60405180910390fd5b6122e68161189b565b15612326576040517f08c379a000000000000000000000000000000000000000000000000000000000815260040161231d90612c8f565b60405180910390fd5b612332600083836120cc565b6001600360008473ffffffffffffffffffffffffffffffffffffffff1673ffffffffffffffffffffffffffffffffffffffff16815260200190815260200160002060008282546123829190612fae565b92505081905550816002600083815260200190815260200160002060006101000a81548173ffffffffffffffffffffffffffffffffffffffff021916908373ffffffffffffffffffffffffffffffffffffffff160217905550808273ffffffffffffffffffffffffffffffffffffffff16600073ffffffffffffffffffffffffffffffffffffffff167fddf252ad1be2c89b69c2b068fc378daa952ba7f163c4a11628f55a4df523b3ef60405160405180910390a4612443600083836120d1565b5050565b6000808273ffffffffffffffffffffffffffffffffffffffff163b119050919050565b600061247d61247884612f2f565b612f0a565b90508281526020810184848401111561249557600080fd5b6124a08482856130dd565b509392505050565b6000813590506124b781613840565b92915050565b6000813590506124cc81613857565b92915050565b6000813590506124e18161386e565b92915050565b6000815190506124f68161386e565b92915050565b600082601f83011261250d57600080fd5b813561251d84826020860161246a565b91505092915050565b60008135905061253581613885565b92915050565b60006020828403121561254d57600080fd5b600061255b848285016124a8565b91505092915050565b6000806040838503121561257757600080fd5b6000612585858286016124a8565b9250506020612596858286016124a8565b9150509250929050565b6000806000606084860312156125b557600080fd5b60006125c3868287016124a8565b93505060206125d4868287016124a8565b92505060406125e586828701612526565b9150509250925092565b6000806000806080858703121561260557600080fd5b6000612613878288016124a8565b9450506020612624878288016124a8565b935050604061263587828801612526565b925050606085013567ffffffffffffffff81111561265257600080fd5b61265e878288016124fc565b91505092959194509250565b6000806040838503121561267d57600080fd5b600061268b858286016124a8565b925050602061269c858286016124bd565b9150509250929050565b600080604083850312156126b957600080fd5b60006126c7858286016124a8565b92505060206126d885828601612526565b9150509250929050565b6000602082840312156126f457600080fd5b6000612702848285016124d2565b91505092915050565b60006020828403121561271d57600080fd5b600061272b848285016124e7565b91505092915050565b60006020828403121561274657600080fd5b600061275484828501612526565b91505092915050565b61276681613069565b82525050565b6127758161307b565b82525050565b600061278682612f60565b6127908185612f76565b93506127a08185602086016130ec565b6127a9816132b8565b840191505092915050565b60006127bf82612f6b565b6127c98185612f92565b93506127d98185602086016130ec565b6127e2816132b8565b840191505092915050565b60006127f882612f6b565b6128028185612fa3565b93506128128185602086016130ec565b80840191505092915050565b600061282b601383612f92565b9150612836826132c9565b602082019050919050565b600061284e603283612f92565b9150612859826132f2565b604082019050919050565b6000612871602583612f92565b915061287c82613341565b604082019050919050565b6000612894601c83612f92565b915061289f82613390565b602082019050919050565b60006128b7602483612f92565b91506128c2826133b9565b604082019050919050565b60006128da601983612f92565b91506128e582613408565b602082019050919050565b60006128fd602183612f92565b915061290882613431565b604082019050919050565b6000612920601483612f92565b915061292b82613480565b602082019050919050565b6000612943602c83612f92565b915061294e826134a9565b604082019050919050565b6000612966603883612f92565b9150612971826134f8565b604082019050919050565b6000612989602a83612f92565b915061299482613547565b604082019050919050565b60006129ac602983612f92565b91506129b782613596565b604082019050919050565b60006129cf602083612f92565b91506129da826135e5565b602082019050919050565b60006129f2601483612f92565b91506129fd8261360e565b602082019050919050565b6000612a15602c83612f92565b9150612a2082613637565b604082019050919050565b6000612a38602f83612f92565b9150612a4382613686565b604082019050919050565b6000612a5b601083612f92565b9150612a66826136d5565b602082019050919050565b6000612a7e602183612f92565b9150612a89826136fe565b604082019050919050565b6000612aa1601d83612f92565b9150612aac8261374d565b602082019050919050565b6000612ac4600083612f87565b9150612acf82613776565b600082019050919050565b6000612ae7603183612f92565b9150612af282613779565b604082019050919050565b6000612b0a603283612f92565b9150612b15826137c8565b604082019050919050565b6000612b2d601183612f92565b9150612b3882613817565b602082019050919050565b612b4c816130d3565b82525050565b6000612b5e82856127ed565b9150612b6a82846127ed565b91508190509392505050565b6000612b8182612ab7565b9150819050919050565b6000602082019050612ba0600083018461275d565b92915050565b6000608082019050612bbb600083018761275d565b612bc8602083018661275d565b612bd56040830185612b43565b8181036060830152612be7818461277b565b905095945050505050565b6000602082019050612c07600083018461276c565b92915050565b60006020820190508181036000830152612c2781846127b4565b905092915050565b60006020820190508181036000830152612c488161281e565b9050919050565b60006020820190508181036000830152612c6881612841565b9050919050565b60006020820190508181036000830152612c8881612864565b9050919050565b60006020820190508181036000830152612ca881612887565b9050919050565b60006020820190508181036000830152612cc8816128aa565b9050919050565b60006020820190508181036000830152612ce8816128cd565b9050919050565b60006020820190508181036000830152612d08816128f0565b9050919050565b60006020820190508181036000830152612d2881612913565b9050919050565b60006020820190508181036000830152612d4881612936565b9050919050565b60006020820190508181036000830152612d6881612959565b9050919050565b60006020820190508181036000830152612d888161297c565b9050919050565b60006020820190508181036000830152612da88161299f565b9050919050565b60006020820190508181036000830152612dc8816129c2565b9050919050565b60006020820190508181036000830152612de8816129e5565b9050919050565b60006020820190508181036000830152612e0881612a08565b9050919050565b60006020820190508181036000830152612e2881612a2b565b9050919050565b60006020820190508181036000830152612e4881612a4e565b9050919050565b60006020820190508181036000830152612e6881612a71565b9050919050565b60006020820190508181036000830152612e8881612a94565b9050919050565b60006020820190508181036000830152612ea881612ada565b9050919050565b60006020820190508181036000830152612ec881612afd565b9050919050565b60006020820190508181036000830152612ee881612b20565b9050919050565b6000602082019050612f046000830184612b43565b92915050565b6000612f14612f25565b9050612f208282613151565b919050565b6000604051905090565b600067ffffffffffffffff821115612f4a57612f49613289565b5b612f53826132b8565b9050602081019050919050565b600081519050919050565b600081519050919050565b600082825260208201905092915050565b600081905092915050565b600082825260208201905092915050565b600081905092915050565b6000612fb9826130d3565b9150612fc4836130d3565b9250827fffffffffffffffffffffffffffffffffffffffffffffffffffffffffffffffff03821115612ff957612ff86131fc565b5b828201905092915050565b600061300f826130d3565b915061301a836130d3565b92508261302a5761302961322b565b5b828204905092915050565b6000613040826130d3565b915061304b836130d3565b92508282101561305e5761305d6131fc565b5b828203905092915050565b6000613074826130b3565b9050919050565b60008115159050919050565b60007fffffffff0000000000000000000000000000000000000000000000000000000082169050919050565b600073ffffffffffffffffffffffffffffffffffffffff82169050919050565b6000819050919050565b82818337600083830152505050565b60005b8381101561310a5780820151818401526020810190506130ef565b83811115613119576000848401525b50505050565b6000600282049050600182168061313757607f821691505b6020821081141561314b5761314a61325a565b5b50919050565b61315a826132b8565b810181811067ffffffffffffffff8211171561317957613178613289565b5b80604052505050565b600061318d826130d3565b91507fffffffffffffffffffffffffffffffffffffffffffffffffffffffffffffffff8214156131c0576131bf6131fc565b5b600182019050919050565b60006131d6826130d3565b91506131e1836130d3565b9250826131f1576131f061322b565b5b828206905092915050565b7f4e487b7100000000000000000000000000000000000000000000000000000000600052601160045260246000fd5b7f4e487b7100000000000000000000000000000000000000000000000000000000600052601260045260246000fd5b7f4e487b7100000000000000000000000000000000000000000000000000000000600052602260045260246000fd5b7f4e487b7100000000000000000000000000000000000000000000000000000000600052604160045260246000fd5b6000601f19601f8301169050919050565b7f6e6f742070726f6a6563742063726561746f7200000000000000000000000000600082015250565b7f4552433732313a207472616e7366657220746f206e6f6e20455243373231526560008201527f63656976657220696d706c656d656e7465720000000000000000000000000000602082015250565b7f4552433732313a207472616e736665722066726f6d20696e636f72726563742060008201527f6f776e6572000000000000000000000000000000000000000000000000000000602082015250565b7f4552433732313a20746f6b656e20616c7265616479206d696e74656400000000600082015250565b7f4552433732313a207472616e7366657220746f20746865207a65726f2061646460008201527f7265737300000000000000000000000000000000000000000000000000000000602082015250565b7f4552433732313a20617070726f766520746f2063616c6c657200000000000000600082015250565b7f70726f6a65637420737563636565646564206f72207374696c6c20616374697660008201527f6500000000000000000000000000000000000000000000000000000000000000602082015250565b7f70726f6a65637420676f616c2072656163686564000000000000000000000000600082015250565b7f4552433732313a206f70657261746f7220717565727920666f72206e6f6e657860008201527f697374656e7420746f6b656e0000000000000000000000000000000000000000602082015250565b7f4552433732313a20617070726f76652063616c6c6572206973206e6f74206f7760008201527f6e6572206e6f7220617070726f76656420666f7220616c6c0000000000000000602082015250565b7f4552433732313a2062616c616e636520717565727920666f7220746865207a6560008201527f726f206164647265737300000000000000000000000000000000000000000000602082015250565b7f4552433732313a206f776e657220717565727920666f72206e6f6e657869737460008201527f656e7420746f6b656e0000000000000000000000000000000000000000000000602082015250565b7f4552433732313a206d696e7420746f20746865207a65726f2061646472657373600082015250565b7f70726f6a6563742069732063616e63656c6c6564000000000000000000000000600082015250565b7f4552433732313a20617070726f76656420717565727920666f72206e6f6e657860008201527f697374656e7420746f6b656e0000000000000000000000000000000000000000602082015250565b7f4552433732314d657461646174613a2055524920717565727920666f72206e6f60008201527f6e6578697374656e7420746f6b656e0000000000000000000000000000000000602082015250565b7f616c726561647920776974686472657700000000000000000000000000000000600082015250565b7f4552433732313a20617070726f76616c20746f2063757272656e74206f776e6560008201527f7200000000000000000000000000000000000000000000000000000000000000602082015250565b7f6d696e696d756d20636f6e747269626974696f6e20302e303120455448000000600082015250565b50565b7f4552433732313a207472616e736665722063616c6c6572206973206e6f74206f60008201527f776e6572206e6f7220617070726f766564000000000000000000000000000000602082015250565b7f70726f6a6563742063616e63656c6c6564206f72206469646e7420737563636560008201527f6564206f72207374696c6c206163746976650000000000000000000000000000602082015250565b7f70726f6a65637420697320636c6f736564000000000000000000000000000000600082015250565b61384981613069565b811461385457600080fd5b50565b6138608161307b565b811461386b57600080fd5b50565b61387781613087565b811461388257600080fd5b50565b61388e816130d3565b811461389957600080fd5b5056fea2646970667358221220d93bc61ca3b46252f3a0490713ceb2a000aa6ffacc8879962dc48877892e350764736f6c63430008040033",
  "linkReferences": {},
  "deployedLinkReferences": {}
}